:020000040001F9
:10B00000302C002035B101004FB1010051B10100D9
:10B010000000000000000000000000000000000030
:10B0200000000000000000000000000053B101001B
:10B03000000000000000000055B1010057B1010000
:10B0400059B1010059B1010081B70100A5B6010055
:10B0500059B101000000000041B2010059B10100E6
:10B0600059B1010059B1010059B1010059B10100B4
:10B0700059B1010059B1010059B1010059B10100A4
:10B0800059B10100D9B3010059B1010059B1010012
:10B09000B9B6010059B10100C1B6010059B10100B2
:10B0A00059B1010059B1010000000000000000008A
:10B0B0000000000000000000000000000000000090
:10B0C0000348854600F0AAF800480047EDC4010097
:10B0D000302C0020401E00BF00BF00BF00BF00BFDB
:10B0E00000BF00BF00BF00BF00BF00BF00BFF1D165
:10B0F00070470000401E00BF00BF00BF00BF00BF80
:10B1000000BF00BF00BF00BF00BF00BF00BFF1D144
:10B1100070470000401E00BF00BF00BF00BF00BF5F
:10B1200000BF00BF00BF00BF00BF00BF00BFF1D124
:10B13000704700000321094802680A43026008487A
:10B1400002680A4302600748804707480047FEE755
:10B15000FEE7FEE7FEE7FEE7FEE70000240500400D
:10B1600054050040E1B60100C1B0010030B50B4606
:10B17000014600202022012409E00D46D5409D42D1
:10B1800005D31D469540491B254695404019154657
:10B19000521E002DF1DC30BD70B50024254600287C
:10B1A00001DA01244042002901DA01254942FFF772
:10B1B000DDFFAC4200D04042002C00D0494270BDBF
:10B1C00003460B439B0703D009E008C9121F08C0C0
:10B1D000042AFAD203E00B780370401C491C521E6B
:10B1E000F9D27047D2B201E00270401C491EFBD276
:10B1F00070470022F6E710B513460A460446194682
:10B20000FFF7F0FF204610BD03460A780270401C8D
:10B21000491C002AF9D1184670470000064C012548
:10B22000064E05E0E36807CC2B430C3C98471034EE
:10B23000B442F7D3FFF748FFA4D50100C4D50100FD
:10B24000F0B50025FF248BB0013401262F4601956F
:10B25000204601F0D3FB002808D047484068304220
:10B2600004D046480021201835430160241D760093
:10B270007F1CA4B2042FEBD3FF207D3001F0BEFB76
:10B28000002807D03E4800210160400705433D48A3
:10B29000006901903C4C280712D0012700262F425C
:10B2A0000AD03A48B200111808690969C004C00EF2
:10B2B0008903A258890F90477F00761C042EEED395
:10B2C000002D57DA00200590401E4DE0A1194031B5
:10B2D00008788506AD0E42B2521C39D00121A94032
:10B2E000089A0091114233D080090390284600F05B
:10B2F0005DFE800020580490002802D103980328A6
:10B3000026D103980099032802D105980843059097
:10B310001F4AA80080180068019A8003800F11421C
:10B3200002D0022802D013E0032811D10399032987
:10B3300007D102281CD00221284601F047FB7F1CC0
:10B34000FFB20498002803D0049A28460399904736
:10B35000761C042EBAD3002F0CD00A48006901993C
:10B36000884207D00190059800273E460890ADE737
:10B370000321E1E70BB0F0BD006300400060004036
:10B380007C61004000050050FC1A00200065004070
:10B39000000700508307FF22DB0E9A408907090E41
:10B3A000994000280BDA0007000F08388308084886
:10B3B0009B001818C36993430B43C361704783080C
:10B3C00004489B001B181868904308431860704796
:10B3D00000ED00E000E400E010B506490020086040
:10B3E00048608860C860034940390860486001F0DF
:10B3F0006DFD10BD40110140FFB5114F0446387876
:10B4000081B01D461646002801D100F0BDF97869CB
:10B41000A04211D918200A4960434118002C06D0D7
:10B420000298CE640D6588640020886548650A9896
:10B43000C865002005B0F0BD0020C043FAE7000059
:10B44000B4230020FFB5114F0446387881B01D4663
:10B450001646002801D100F097F93869A04211D9A9
:10B4600018200A4960434118002C06D00298CE618A
:10B470000D6288610020886248620A98C8620020D4
:10B4800005B0F0BD0020C043FAE70000B42300205F
:10B4900070B5074B0646187814460D46002801D1B2
:10B4A00000F072F922462946304600F003F870BDDC
:10B4B000B423002070B50E461821484313491446A2
:10B4C0004518E86A1835002804D001280FD0022852
:10B4D00005D113E0284600F08DF9A04201D20024E6
:10B4E00011E022463146284600F0AFFA0BE028462C
:10B4F00000F080F9A042F4D20446F2E73146284633
:10B5000000F073FA0446204670BD0000B42300200A
:10B51000F7B598B007A80290402000250495039045
:10B5200018980C46059506902178641C002977D060
:10B53000252907D002A800F039FA05980028F3DA87
:10B540001BB0F0BD012200210227134608262078F7
:10B5500023281BD02B2816D02D2802D0302806D126
:10B5600001E0194300E03943641C002AEFD10022B6
:10B5700020780346303B0A2B0AD20A235A4312187A
:10B58000303A641CF4E704200143EDE73143EBE774
:10B590000023C7B22E2F0AD1641C20780746303F03
:10B5A0000A2F04D20A277B431B18303BF4E76C2890
:10B5B0000DD068280BD0702852D00BDC25285AD02B
:10B5C00058282ED063280CD0642858D110E0207859
:10B5D000641CECE7732832D0752817D078284ED138
:10B5E0001FE01A981A9A0068011D1160017843E063
:10B5F0001A981A9F0068061D3E600068019100922B
:10B6000001460A2202A800F000F938E01A981A9FB1
:10B610000068061D3E600068009201910A2209E060
:10B620002FE01A981A9F0068061D3E60006800927D
:10B6300001911022014602A800F04CF91FE01A986F
:10B640001A9A0068011D116006683178761C00297D
:10B6500015D002A800F0AAF905980028F5DA0EE046
:10B660001A981A9A00680823011D116001681022B7
:10B6700000960195DFE7252102A800F097F9641CE8
:10B680005BE70598002800DC5AE70498002804D0FE
:10B69000024607A91898FFF7FBFE04990598401881
:10B6A00005904DE710B50249024800F07BFD10BD42
:10B6B000601B00200030004010B501F09DFB10BD64
:10B6C00010B506484068002805D08047002801D002
:10B6D00000F0B4FB10BD00F029FD10BDB41800202F
:10B6E00010B500F0B5FD002805D01F491D48486081
:10B6F000C8131E4988611E48018CC9B201290BD1AB
:10B70000828C120708D1028D1206120F042A03D16F
:10B71000828D1206120F0AD0012921D1818C0907CE
:10B720001ED1018D0906090F0A2904D007E0114A2C
:10B7300001219160F5E7828D1206120F05D00D29C7
:10B740000ED1808D0006000F0AD10B480168012937
:10B7500004D00A49016001680129FCD1C02141617E
:10B7600010BD0000DFFF07C000050040006C004076
:10B77000C00F00F00006004000EC0640759300008A
:10B7800010B501F0DFFD10BD10B5124C0220206194
:10B79000606111A0A0611348E06101208002206275
:10B7A0000020A06260620CA1A1642146E062103911
:10B7B000E16410212165A0656065E0650AA1E01DD6
:10B7C000FFF722FD09A12046FFF71EFD2020A071F2
:10B7D00010BD0000B42300205465726D696E616C69
:10B7E00000000000A41F0020525454005345474756
:10B7F000455200000269C1688A4203D88068401A35
:10B80000801800E0501A401E7047FFB583B00E4606
:10B8100070420D9F0C9C0090002900DB084601251A
:10B8200002E0FFF7B9FC6D1C05998842F9DA069829
:10B83000A84200D90546002C04D0002E01DB780771
:10B8400000D5641EB80702D50698002810D0F80766
:10B850000ED1002C0CD0A5420AD22021641E0398E0
:10B8600000F0A4F80398C0680028F2DA07B0F0BD31
:10B870000398C0680028F9DB002E02DA2D21009E13
:10B8800002E0780707D52B21039800F08FF8039882
:10B89000C0680028EADBB807800F022810D106989C
:10B8A00000280DD1002C0BD0A54209D23021641EF6
:10B8B000039800F07BF80398C0680028F2DAD5E717
:10B8C000019700943146069B059A039800F002F810
:10B8D000CCE70000FFB581B001261F4634460A9D23
:10B8E000029802E0FFF742FC641C03998842F9D2F7
:10B8F000A74200D93C460B98C00718D1002D16D09E
:10B900000B98800701D5002F02D0202000900CE07A
:10B910003020FBE76D1E0099019800F047F8019870
:10B92000C06800283DDB002D01D0AC42F2D3019865
:10B93000C068002835DB012F01D97F1E06E03146A3
:10B940000298FFF713FC0399884202D303984643F9
:10B95000F1E7154F31460298FFF708FC0146029ABD
:10B960007143511A0291395C019800F01FF8019857
:10B97000C068002805DB30460399FFF7F7FB060097
:10B98000E8D10B98C0070CD0002D0AD0AC4208D2E9
:10B9900020216D1E019800F009F80198C068002868
:10B9A000F2DA05B0F0BD000094D5010010B50446F0
:10B9B00080686368421C934205D323681954A260CF
:10B9C000E068401CE060A2686068824209D121689A
:10B9D0002069FFF75DFDA168884203D00020C043C5
:10B9E000E06010BD0020A06010BDF7B5064682B033
:10B9F00000200090F46817463069A04201D9051B69
:10BA000002E0B168201A0D1AB0686D1E001BA84232
:10BA100000D80546BD4200D33D4670682A4600194D
:10BA20000399FFF7CDFB00987F1B40190090039806
:10BA3000641940190390B068A04200D10024F4605A
:10BA4000002FD9D1009805B0F0BDF7B5C6681746EC
:10BA500004468068851B6068BD4206D9801901993B
:10BA6000FFF7AEFBF019E060FEBD2A468019019990
:10BA7000FFF7A6FB01987E1B411932466068FFF76D
:10BA80009FFBE660FEBD02E008C8121F08C1002A45
:10BA9000FAD170477047002001E001C1121F002A4F
:10BAA000FBD17047F7B584B000251688074615808E
:10BAB000406B1446002813D003780598032E51D309
:10BAC0000221017021881122491C89B2218042542F
:10BAD0002188491C89B2218043542088401C208041
:10BAE000386B00281DD00546208805990246123281
:10BAF000B24237D811220A5420881022401C80B24A
:10BB000020800A542088401C20800F202A5C238833
:10BB1000401ECA54228840B2521C22800028F5DA06
:10BB20000025384620300290807B002806D033461E
:10BB30002246059900F0B0FB050014D10298407B25
:10BB4000002806D032462146059800F0FFF905008E
:10BB500009D1B878002823D0059886462088001D92
:10BB6000B04202D90C2007B0F0BD684679DF00284A
:10BB7000F9D1218803207246505420881921401C95
:10BB800080B22080115420887146401C80B22080F1
:10BB900041186846008801F069FC2188401820801F
:10BBA000F878002817D0218803230A46FB56C91CC1
:10BBB0000598B142D6D80221815421880122491C1E
:10BBC00089B2218042542188491C89B22180435482
:10BBD0002088401C20807868002817D02188002306
:10BBE000C3560A46C91C0598B142BBD802218154EC
:10BBF00021880A22491C89B2218042542188491C8B
:10BC000089B2218043542088401C20803889002834
:10BC10000AD0009438460196062202210830059B7E
:10BC200001F029FC05009ED1388A00280AD0009432
:10BC300038460196072203211030059B01F01BFCBA
:10BC4000050090D1388B00280AD000943846019620
:10BC5000152214211830059B01F00DFC050082D13E
:10BC6000386A002806D033462246059900F0FAF9D2
:10BC70000500D8D1786A002806D0334622460599B7
:10BC800000F0ACFC0500CED10298007B002807D064
:10BC9000334622463846059900F0ACFF0500C2D174
:10BCA0003878002807D0334622463846059900F0F8
:10BCB0006FFD0500B7D1284655E7000070B598B074
:10BCC0000525042601210A2000F08EF8012102201A
:10BCD00000F08AF8072215A9032000F05BF81F4C3A
:10BCE000002015A94A5D23186D1E401CC0B21A73AE
:10BCF000EDB20628F6D3592110A80181172114941A
:10BD00008181382104A8FFF774FA0025684605747C
:10BD1000C67412A80D90294604A800F0E3F8002884
:10BD200001D000F08BF8A07B637C227CE17B6E4627
:10BD30000FC6637B227B0AA1002000F0CBFB1821F9
:10BD40001348FFF756FA1248032101704560057247
:10BD5000A0210182458218B070BD0000701800203B
:10BD60006D5F626561636F6E5F696E666F20697398
:10BD7000203A0A5A3A25642C2025640A593A256447
:10BD80002C2025640A583A25642C2025640A0000DA
:10BD9000E41A0020F7B582B0114D0027114C00972E
:10BDA0002E46012302AA0C21606800F0E9FD00285C
:10BDB00014D12078002801D1761EFDD22770049876
:10BDC0000C21C3B2039A606800F0C8FD002805D1B9
:10BDD0006178002901D16D1EFDD2677005B0F0BDFC
:10BDE00088130000881800207CB56A4610715171D4
:10BDF00000260A4D0096084C022301AA0C2168680F
:10BE000000F0BEFD002805D12978002901D1641E6B
:10BE1000FDD22E707CBD0000881300008818002021
:10BE2000BFF34F8F04490348C860BFF34F8F00BF73
:10BE3000FDE700000400FA0500ED00E00EB500216A
:10BE4000029000916A4601910148FFF7E9FF0EBD9B
:10BE500001400000FFB59007002581B014460E4652
:10BE6000002832D11B4F002C31D000F0EBFD04989C
:10BE700078610320387033461821224600204B4356
:10BE8000BC601834C10089180D704D708E704C6004
:10BE90001C19401C0328F5DBFD607D7001240E4851
:10BEA000BD702405046003211420FFF773FA0B48CA
:10BEB00004600B4C0198A06003211120FFF76AFA7F
:10BEC00060683861002005B0F0BD0720FBE7BD6069
:10BED000FBE700009018002080E200E000E100E0B5
:10BEE00000150140F0B50C4693B01F216A46118041
:10BEF000072600279180002809D0C17849070DD571
:10BF000002A9FFF7CFFD002809D102AD01E000250D
:10BF10001780002C0ED0E078002802D0304613B0F5
:10BF2000F0BD01AA0AA92046FFF7BCFD0028F6D102
:10BF30000AAA02E068460022878068468088C3B269
:10BF400068460088C1B2284672DFE8E77CB505463E
:10BF500008880C460930904201D90C207CBD684607
:10BF600071DF0028FAD121880820685420881B211D
:10BF7000401C80B220802954208800A9401C80B237
:10BF80002080401906220131FFF71AF920886946FE
:10BF9000801D80B220800978002900D00121295419
:10BFA0002088401C208000207CBD00000249091828
:10BFB0002020085670470000FC1A0020F8B52348DE
:10BFC000C16800293ED00E6821494C680769C078D5
:10BFD000E11B0D022D0AED1C002814D101201D4A81
:10BFE000000450601B4A403A50601B494000086002
:10BFF0001A4908601A49012008602F20FFF78AF8C3
:10C0000012490120C870B54200D23546E819000235
:10C010000F4B000A403318600D4A5168001B091B82
:10C020000902090A0002000AC91C814209D95068A4
:10C0300018602F20FFF76EF801200749400480396F
:10C040000860F8BD00F0FEFCF8BD0000901800206C
:10C05000001501404013014080E200E000E100E0F3
:10C0600000100140F8B50646108814468446801D2D
:10C070000D46984201D90C20F8BD32880720062AC7
:10C08000FAD31927FF01184BBA4201D99A42F3D1CA
:10C0900071880629F0D3B94201D99942ECD19A426C
:10C0A00003D0994201D08A42E6D80521604629543E
:10C0B00020881221401C80B2208029542088401CF6
:10C0C00080B220804119308801F0D0F921884018D1
:10C0D00080B220804119708801F0C8F92188401889
:10C0E00020800020F8BD0000FFFF000010B50E49C1
:10C0F00000234A788C78A24212D0521CD2B24A70E5
:10C10000022A00D14B704A78074B920018339A5894
:10C110000260086910180002000A0861012010BDC1
:10C120000360002010BD000090180020F8B51C4CE2
:10C130002078002833D02069002807D00026E06846
:10C14000002805D00025002E04D011E00126F6E7D6
:10C150000125F8E7684652DF052804D0002804D0FE
:10C16000FFF76CFE04E0012602E021690098884791
:10C17000002D10D1608869460880A06861DF05281D
:10C1800004D0002804D0FFF759FE04E0012502E0A6
:10C19000E168A0688847002EDCD0002DD3D0F8BD20
:10C1A000B41800207FB50C460D4620350646697848
:10C1B00028780191009022462632D11E3046E3694C
:10C1C00000F08BFF002819D1E87800281DD1207BD2
:10C1D000022801D0032818D12269E169914214D1C3
:10C1E0006269E261E37B2B70217E8906C90F697069
:10C1F000032804D03146204600F012FF7FBD009195
:10C200003146204600F0ECFF7FBD20460C3007C8C9
:10C2100001AB07C3E878002100280ED00920C00137
:10C220003218506C5064820701D5012002E04007AB
:10C2300005D502206A46107001E068460170297138
:10C24000207E4007E0D422686846616890477FBD41
:10C250001048018CC9B2012917D1818C090714D16A
:10C26000018D09060A0F03D1828D1206120F0ED01E
:10C27000090F012903D1828D1206120F07D003295D
:10C2800003D1808D0006000F01D0002070470120EF
:10C2900070470000C00F00F030B51588EC1C9C42C0
:10C2A00001D90C2030BD02244C5513881C255B1C81
:10C2B0009BB21380CD5413885B1C9BB21380012862
:10C2C00007D0022807D0032807D0042807D007206A
:10C2D00030BD002004E0012002E0CC5401E0032046
:10C2E000C8541088401C1080002030BDF8B52C497F
:10C2F000C8680A690C780F79896886469446009167
:10C300003EE00099E20055182A7836E0182353439E
:10C310006968521CC918AB78D2B2934200D100228E
:10C320000B78022B02D0032B27D123E04E68034663
:10C33000014603E0B14204D00B46C96900291CD074
:10C34000F8E7002919D08B4208D1C069002805D12F
:10C35000144F0126BE600026B44601270E68C96945
:10C36000D961002909D00B689B190B6005E00174A5
:10C37000C06900E000210028F9D169789142C5D157
:10C380002146641EE4B20029BBD1054962460A6118
:10C39000C8600F71704501D00120F8BD0020F8BDC4
:10C3A0009018002000100140F8B5044631480026DE
:10C3B000C168009107784EE02E48F90080680D189A
:10C3C00043E0002C02D02046E4691FE028781821C1
:10C3D00041436A68401CC0B251182870AA78904244
:10C3E00000D12E700A784868012A30D1027C002AD8
:10C3F0002DD18A684260CA6882600A69C260496950
:10C4000081611C490979002900D0466019494368B7
:10C410000A699C46991A0902174B090A994202D2E5
:10C420008268891807E06146511A09028268090A80
:10C430008A4202D9511A016000E00660466001217B
:10C4400086600174C66100F021FD002CB9D1287806
:10C4500069788842BAD138467F1EFFB20028ABD136
:10C460000448C1680098814201D00120F8BD002035
:10C47000F8BD000090180020FFFF7F0038B50E4C7B
:10C480002078002801D0002038BD0125AB020B4ADE
:10C490000BA100200095FEF7D5FF002807D110233F
:10C4A000094A0AA10090FEF7A7FF002801D0082042
:10C4B00038BD2570E7E70000B0180020931B00206E
:10C4C0004E6F726D616C0000931F0020496E707595
:10C4D000740000000FB408B504A900916A460399DE
:10C4E000FFF716F801B008BC04B01847002386B067
:10C4F000284A05211846FFF7ADFC002801D0FFF7B8
:10C500009DFC00F073FD00F017F9234821494068B5
:10C51000059000234822483905A800F04BFC00286C
:10C5200001D0FFF78BFC00216A46084600F02AFC88
:10C53000002801D0FFF782FC184800F0CFFA00284D
:10C5400001D0FFF77BFC684600F09CFB002801D07F
:10C55000FFF774FCFF25124CF535FFF7AFFB1148D0
:10C5600073DF002801D0FFF769FC0FA10020FFF75F
:10C57000B1FF204600F05CF974DF002801D0FFF71E
:10C580005DFC10A10020FFF7A5FF284600F050F940
:10C59000E3E700001C19002054D5010070180020AA
:10C5A00088130000E41A0020416476657274697390
:10C5B000696E672069732053746172742E2E2E0A7F
:10C5C000000000004164766572746973696E6720CB
:10C5D00069732053746F702E2E2E0A0070B51446A6
:10C5E00082880E4605462088111D4118921C9942EA
:10C5F00001D8FE2A01D90C2070BD521C325420886B
:10C60000FF21401C80B2208031542088401C80B221
:10C6100020808119288800F029FF2188401880B2E5
:10C620002080AA88002A09D0A968002908D080198A
:10C63000FEF7C6FD2088A98840182080002070BD24
:10C64000072070BD10B501460422192000F02CF817
:10C6500010BD000010B5064948600721682000F0B1
:10C660004FF8002803D101216B2000F049F810BDDC
:10C670008818002010B50178372000F041F810BD6F
:10C68000017800290BD1027901200649002A05D042
:10C69000012A05D0022A03D0032A00D1087070476E
:10C6A0004870704788180020F7B582B00120124CFE
:10C6B000124D174603460090264602AA6821686874
:10C6C00000F05EF9002815D12878002801D1761EE7
:10C6D000FDD200262E700096FBB26821039A68688E
:10C6E00000F04EF9002805D12978002901D1641EF7
:10C6F000FDD22E7005B0F0BD881300008818002010
:10C700007CB56A461071517100260A4D0096084C9E
:10C71000022301AA6821686800F032F9002805D1D7
:10C720002978002901D1641EFDD22E707CBD000045
:10C7300088130000881800201CB51448FFF78AFFF2
:10C74000002801D0FFF77AFB104C13210C3CA068A5
:10C75000009068460170C178E72001406846C170CA
:10C76000FFF770FF002801D0FFF768FB20686946DB
:10C7700001900879022108436946087101A8FFF772
:10C7800079FF002801D0FFF759FB1CBD60D50100DF
:10C79000F8B50F46017814460546012902D168789C
:10C7A000002806D02088821C9A422DD8012902D068
:10C7B00006E00720F8BD69784118891C994223D802
:10C7C000181A801E86B2684606802188B81C081890
:10C7D00069467DDF0028EDD12878022805D1694619
:10C7E0000988B14201D809210AE00821012805D1B0
:10C7F0006878B04202D86A46108001E06846068038
:10C8000068460088FE2801D90C20F8BD2288401C0B
:10C81000B8542088401C80B2208039542088694652
:10C82000401C20800988401820800020F8BD0000AE
:10C8300031B5054C04E0401E00902046FEF74AFC4E
:10C8400000980028F7D138BDE70300008207D30E17
:10C85000FF229A408907090E10B5994000280BDA8B
:10C8600003071B0F083B9C080C4BA400E318DC6972
:10C8700094430C43DC6107E08408094BA400E418EE
:10C88000236893430B432360C106C90E01208840EF
:10C89000044908600449086010BD000000ED00E094
:10C8A00000E400E080E200E000E100E001792822FD
:10C8B0005143054A0068891805221302C018026016
:10C8C0000220203188707047601B0020F8B50746B1
:10C8D0000C46007928211D4D41434D192E46203626
:10C8E000B178002901D00820F8BD002C02D11849E8
:10C8F000000144180CC50020286070713071214679
:10C900003846083D00F022FB206812498200124898
:10C9100012181160626892001018016005233868CF
:10C920001B0206CCC0188160C26021684162286881
:10C93000083C002805D03868217B000B40B2FFF787
:10C9400085FF0120B0700020F8BD0000601B0020B2
:10C9500078D501000C060000000700503EB5074DD9
:10C960002C69AD69009402956C466170A3700192C8
:10C970000022694600F016F83EBD000078D501009F
:10C980003EB50025069C009502956D466970AB701A
:10C990000192002C01D0202200E00022294600F064
:10C9A00001F83EBD70B50D46017928235943064B69
:10C9B000CC18910701D0062070BD134601682A46A5
:10C9C000204600F053FC70BD601B0020820006482A
:10C9D0001018026803231B049A43026002680904CA
:10C9E0000A430260704700000007005001218140A7
:10C9F000014881607047000000050050034940185D
:10CA00000068012800D0002070470000006000404E
:10CA10004058002800D0012070474058002800D01E
:10CA2000012070470322120280184068084000D09D
:10CA300001207047012252075110886B496B414316
:10CA40008818704770B501240B49600408600B49D1
:10CA500040108860094940398860094D6C602F207A
:10CA6000FEF758FBAC60074D00242F202C61FEF729
:10CA700051FBEC7070BD000080E100E0401301400C
:10CA8000001001409018002030B50A48FF21C57DF4
:10CA90000022094C0931094B002D625007D09969D9
:10CAA000437EC268D154417E491C417630BD9869AD
:10CAB00030BD0000441B0020002000400025004045
:10CAC0001FB501236A46137010720348019106C80E
:10CAD000684690471FBD0000441B002038B504463F
:10CAE00009480090A0420DD0FFF7A4FF0546234659
:10CAF00006A10020009AFFF7EDFC2A1B10A10020E0
:10CB0000FFF7E8FC002038BD7018002052414D208E
:10CB100053544152542041444452203078257820C7
:10CB200073686F756C642062652061646A757374E4
:10CB3000656420746F20307825780D0A00000000AD
:10CB400052414D2053495A452073686F756C6420DB
:10CB500062652061646A757374656420746F203047
:10CB6000782578200D0A000010B50121202805DA6B
:10CB70001A4A8140114201D1194810BD8107C90EDE
:10CB8000002808DA0207120F083A9208154B9200A3
:10CB9000D218D26904E08208134B9200D2181268AE
:10CBA000CA401106890F042911D200290FD0022989
:10CBB0000DD00E494C68C306DB0E01229A40002CB2
:10CBC00008D0400980000B5813430B5004E0044880
:10CBD000401C10BD06480260002010BDFC06FFBCD2
:10CBE0000120000000ED00E000E400E0C818002093
:10CBF00000E100E0FFB50746806A81B014460028D6
:10CC00003DD0002538462030009033E00C20B96A32
:10CC100068430E18B088801CFE2802D90C2005B08D
:10CC2000F0BD22880299401C885420881622401C9E
:10CC300080B2208002990A542088401C80B2208053
:10CC400002994118308800F011FC2188401880B208
:10CC50002080B288002A0AD0B16800290FD0029B38
:10CC6000C018FEF7ADFA2088B188401820806D1CEE
:10CC70000098EDB2007BA842C8D80020CFE707207B
:10CC8000CDE700007CB504461448019002460090B0
:10CC900013A10020FFF71EFC6946204660DF044612
:10CCA0000199009888420ED0FFF7C4FE054615A1F1
:10CCB0000020009AFFF70EFC009821A12A1A0020FC
:10CCC000FFF708FC07E0002C05D0224626A1002033
:10CCD000FFF700FCFEE720467CBD00007018002036
:10CCE00073645F626C655F656E61626C653A205269
:10CCF000414D20535441525420617420307825789E
:10CD00000D0A000073645F626C655F656E61626C42
:10CD1000653A206170705F72616D5F62617365205A
:10CD200073686F756C642062652061646A757374E2
:10CD3000656420746F20307825780D0A00000000AB
:10CD400072616D2073697A652073686F756C6420F9
:10CD500062652061646A757374656420746F203045
:10CD6000782578200D0A000073645F626C655F654A
:10CD70006E61626C653A206572726F722030782540
:10CD8000780D0A0070B50E4605461446142110466B
:10CD9000FEF72FFA012000212080216121732672E5
:10CDA0006572002D00D0A072002070BD10B5FFF795
:10CDB00037F810BDFFB581B01D4616460C46FFF78B
:10CDC0005DFB002C01D0A00702D0072005B0F0BD0C
:10CDD0002046074C0127A0606680656005490198E0
:10CDE00010DF0028F2D127701620FFF7BDFEEDE717
:10CDF000B4180020ADCD0100FEB51F4C00252769F9
:10CE0000E06802906846FFF771F90190FFF76EFA4B
:10CE100006460198002822D000230098E16817E018
:10CE20000E680A46864202D9301A086012E0801B5A
:10CE3000F31800261660D668D169B446002E07D0D4
:10CE4000FE183602360A566066469660D56115466B
:10CE50000029E5D12846E160FFF7A6FA06E028465A
:10CE6000FFF7A2FA002801D1002E02D00298FFF7A6
:10CE7000A5F800202071FEBD901800200120024975
:10CE8000000508607047000000E200E010B50E4B9E
:10CE9000D968002906D002680C68A24204D8A21AF8
:10CEA0000A60C161D86010BD0B4604E00B46C96939
:10CEB000121B002904D00C689442F7D3A41A0C600A
:10CEC0000260C161D86110BD90180020F8B51D4DF9
:10CED000EC68002C34D01C48002740682969401AAF
:10CEE0000602360A2068B04218D8361AC7192246F8
:10CEF000107CE46900280FD0002010746B69002BAF
:10CF000007D0916950699847002805D0FEF796FF31
:10CF100002E0516990698847002CE3D16978A878CC
:10CF2000814206D1401CC0B2A870022801D1002065
:10CF3000A87004490006800D18310F50FFF79EFFBE
:10CF4000F8BD00009018002000150140F8B50C460F
:10CF50000968224D890020484919086061688900E4
:10CF6000491908602068FFF741FD6068FFF73EFD42
:10CF700019482168401C89004919086061688900C6
:10CF8000491908600420FEF7B5F80025144F012662
:10CF900020793969C140C807C00F02D0002D19D0CF
:10CFA0000FE0207831468140F9600420FEF7A2F8B6
:10CFB0002068FFF71BFD0420FEF79CF86D1C092D6F
:10CFC000E6DB20798640FE600420FEF793F8606877
:10CFD000FFF70CFDF8BD00000C0600000007005034
:10CFE0000005005010B5FFF74BFB10BD1FB50A4BF5
:10CFF0006C460FCB0FC408480023084A694608381E
:10D00000FFF764FC002801D0FEF718FF024808383B
:10D01000FFF74CFC1FBD000068D50100E5CF010003
:10D02000FFB50027FF2285B00C4605321E46A750EB
:10D03000FF222532A750FF221D32A750FF220932BE
:10D04000A75005462035CA1DFF32AF71FA32EF7086
:10D05000012B0FD00123136001222262226002689B
:10D06000002A09D0104981608068032109026118F3
:10D07000486015E00223EEE7014626312330039194
:10D0800002900020019000962046079B039A029987
:10D0900000F023F80028F4D1E878002800D0032716
:10D0A000384609B0F0BD00008602000030B51C789B
:10D0B000039D944208D205221202095D8018C161C5
:10D0C0001878401C187006E00121002D02D0C161C3
:10D0D000002030BD4161012030BDFFB50F46097809
:10D0E00081B00446012904D0039802780A9882424C
:10D0F00001D1012600E00026FF202530002500296F
:10D1000007D02550FF201D302550FF200930255025
:10D1100056E0FF2125312046FFF77AFC00282CD16C
:10D12000FF211D312046FFF773FC002814D0FF209B
:10D130001D302550FF2125312046FFF769FC0028CE
:10D140001BD10B9800902046039B0A9A0499FFF785
:10D15000ADFF002840D033E0FF2109312046FFF722
:10D1600057FC00282CD0FF2009302550FF21253105
:10D170002046FFF74DFC002806D0FF202530255023
:10D180000120606138701BE003990A980F78049AB7
:10D19000BC46874214D205231B02E3189B696746ED
:10D1A000D3550A78521CD2B20A70411E8A4203D16A
:10D1B00002200102085101E0824201D001212162D6
:10D1C000002E0BD0FF26053631462046FFF720FC07
:10D1D000002803D0A551002005B0F0BD0120FBE7D9
:10D1E000FFB5054687B00C460020FF21109F053192
:10D1F00005906050FF2125316050FF211D316050A6
:10D20000FF2109316050012149022E460851203684
:10D21000B071F07001202062A060B31D00970293EE
:10D2200020460A9A0999FFF741FF2868002807D08D
:10D230000D48A860A868032109026118486010E041
:10D2400023350A980090019729462046099B029AA7
:10D25000FFF743FF0028F4D1F078002801D0032025
:10D26000059005980BB0F0BD86020000F8B50446A5
:10D2700000250320ED43000208188560254620356F
:10D280002E79002E03D0A16841601120F8BD580707
:10D29000C017401C2871180701D50620F8BDA361EE
:10D2A000C1CA0C34C1C40C3A9078287050680B265F
:10D2B0006060F60150788E19B06010780026183C36
:10D2C00001280ED0002801D1980601D5012000E0E8
:10D2D000002068700090937852682046FFF780FF26
:10D2E00005E06E70937852682046FFF799FE21683A
:10D2F0000029D3D12E71F8BDFF2107481D3100222E
:10D3000042500648828A8168895C828A521C8282E5
:10D310000348C1617047000000200040441B00200A
:10D32000002500401FB500216A46117010720448A4
:10D3300082680192817506C8684690471FBD00004B
:10D34000441B0020F0B5454D012185B04902284617
:10D35000FFF768FB01270026414C002824D0FF215D
:10D3600025312846FFF759FB00281DD0FF20253026
:10D370002E5081203B4980008860A07E002800D18B
:10D380006F600221684601703749086808600390A1
:10D39000E17D68460172E0680190E675267606CC6C
:10D3A0006846083C90472BE004212846FFF73AFBEB
:10D3B000002825D0FF2109312846FFF72EFB002841
:10D3C0001ED0FFF761FBE07D617E884218D1207E90
:10D3D000002808D0627EE168E0752069E06026766A
:10D3E000667610460AE0A07E002800D16F6081209A
:10D3F0001C4980008860E675607EE168FFF760FB8D
:10D40000FF211D312846FFF708FB00280DD0A18A17
:10D41000A07D814202D2FFF76FFF06E0FF211D31A0
:10D420006E50002801D0FFF77DFFFF2145312846CF
:10D43000FFF7F3FA00280ED0FF2045302E50A07ED3
:10D44000002800D02F60E07D002804D0E675607EC3
:10D45000E168FFF735FB05B0F0BD0000002000409B
:10D46000441B002000230040802400400870000A74
:10D47000487002207047FFB583B016460C9D0D9C86
:10D480001F46022200950194039800F00CF8002832
:10D4900007D13B461022314600950194039800F0D5
:10D4A00002F807B0F0BDFFB583B0074600200C9C22
:10D4B0008646268805463AE07868A9004218118811
:10D4C000684681805188C1800022694601A865DFD5
:10D4D000002839D1684601780598814226D17046E6
:10D4E000002801D0002200E002222088891842187A
:10D4F0000D998A4227D8714600290AD1401C80B272
:10D500002080069A049911542088401C2080012014
:10D510008646218806980A18694601A865DF002812
:10D5200012D1694620880978401820806D1C3888FF
:10D53000A842C1DC704600280AD02088801B401E0B
:10D5400080B2FF2802D90C2007B0F0BD069988559B
:10D550000020F9E71000000001000007070118187B
:10D560000030004000000000050000000600000040
:10D57000000068060100000000000000010000003B
:10D5800000009801030000000100000000000000FE
:10D5900000000000303132333435363738394142FB
:10D5A00043444546C4D501007018002064000000C3
:10D5B00086BA010028D60100D41800205C130000B0
:10D5C00096BA010002154E4B465553540000000018
:10D5D00000000000000001020304C300000000007E
:10D5E000000000000000000000000000000000003B
:10D5F000000000000000000000000000000000002B
:10D60000000000000000000000000000000000001A
:10D61000000000000000000000000000000000000A
:08D62000000000000024F400EA
:040000050001B0C185
:00000001FF
